:020000040000FA
:060000000A128A11F82F1C
:100CEE00000083120313061500008312031306116E
:100CFE0000000800831203138614061500008312E9
:100D0E0003130611861008000A128A1177260A129A
:100D1E008A110A128A1177260A128A110A128A1168
:100D2E0077260A128A11080083120313061AA02EC0
:100D3E00A12EAC2E24082504031DA62EA72EAC2E04
:100D4E000130A4000030A500BD2E061EAF2EB02E21
:100D5E00BD2E240825040319B52EB62EBD2EA401D2
:100D6E00A5010310200DA000210DA10008000A12FC
:100D7E008A1177260A128A110A128A1181260A12FC
:100D8E008A110A128A1181260A128A110A128A11EE
:100D9E0077260A128A110A128A1177260A128A11E6
:100DAE000A128A1177260A128A110A128A117726D6
:100DBE000A128A110A128A1177260A128A1108005B
:100DCE000A128A1181260A128A110A128A118126A2
:100DDE000A128A110A128A1181260A128A110A121D
:100DEE008A1181260A128A110A128A1177260A128C
:100DFE008A110A128A1181260A128A110A128A117E
:100E0E0081260A128A110A128A1177260A128A116B
:100E1E000800F930F00070088316031387057F3041
:100E2E00F0007008810504308312031392000F3016
:100E3E009D00F930F00070088605F930F00070085A
:100E4E00831603138605843083120313A200033026
:100E5E00A3000130A0000030A1000A128A118126E1
:100E6E000A128A11FC01FD010A128A1177260A1252
:100E7E008A110130FC070318FD0A0030FD077D08BA
:100E8E00803AFF0080307F02031D4F2F28307C02F6
:100E9E00031C522F532F3B2F0A128A1181260A123E
:100EAE008A110A128A11E7260A128A110A128A1167
:100EBE00E7260A128A110A128A11E7260A128A11E5
:100ECE000A128A11E7260A128A110A128A118B2631
:100EDE000A128A110A128A119B260A128A11F60127
:100EEE00F701A52FF801F9018F2F0630F100FB3025
:100EFE00F000F00B802FF10B802F0A128A119B2627
:100F0E000A128A110130F8070318F90A0030F9079E
:100F1E007908803AF000831203132108803A700298
:100F2E00031D9B2F20087802031C9E2F9F2F7C2FC2
:100F3E000130F6070318F70A0030F7077708803AF2
:100F4E00F000831203132308803A7002031DB12FA1
:100F5E0022087602031CB42FB52F792F0A128A119C
:100F6E0081260A128A110A128A11BE260A128A11C3
:100F7E000A128A11BE260A128A110A128A11BE2676
:100F8E000A128A110A128A11BE260A128A110A122E
:100F9E008A118B260A128A11FA01FB01E42F063000
:100FAE00F100FB30F000F00BDA2FF10BDA2F0130ED
:100FBE00FA070318FB0A0030FB077B08803AF000A3
:100FCE00831203132308803A7002031DF02F2208A8
:100FDE007A02031CF32FF42FD62F532F0A128A11E5
:100FEE00002883120313A401A50183010A128A119A
:020FFE00102FB2
:02400E007A3FF7
:00000001FF
