:020000040000FA
:060000000A128A11FC2F18
:100EA200562F0430F0007008870683120313061AC7
:100EB2005B2F5C2F522FF030F100D830F2006D2FF3
:100EC200061A642F652F692FF030F100D830F20036
:100ED2000430F000700887060130F1070318F20AA7
:100EE2000030F20771037204031D782F792F612FEE
:100EF2000000000000000800F930F60076088316B2
:100F0200031387057F30F6007608810504308312CB
:100F1200031392000F309D003F30F6007608F9006F
:100F22000130F7000030F8000430F6007608FA00CD
:100F32007808F1007708F0007A08F6007608F200E7
:100F420079080A128A11B6270A128A1100000000D3
:100F520000000A128A1151270A128A1100000000A9
:100F62000000992F0A128A110028F50075088316CD
:100F720003139200FF30F0050330F1057018C22F01
:100F8200C62F831203131D16C92F831203131D12BA
:100F9200F018CC2FD02F831203139D16D32F831258
:100FA20003139D1202300310F10CF00CFF3E031DDF
:100FB200D42F70089B00E52F92101210F82F921078
:100FC2001214F82F9214F82F7208F300F401740827
:100FD200003A0319ED2FF82F7308013A0319DD2F98
:100FE200053A0319E02F143A0319E32FF82F0000F2
:0E0FF20000000000080083010A128A117D2F02
:02400E007A3FF7
:00000001FF
